******************************************************************************
                  TI ARM Linker PC v16.9.4                     
******************************************************************************
>> Linked Mon Dec 18 22:55:53 2017

OUTPUT FILE NAME:   <PRAC_JCM_57.out>
ENTRY POINT SYMBOL: "_c_int00"  address: 0000a835


MEMORY CONFIGURATION

         name            origin    length      used     unused   attr    fill
----------------------  --------  ---------  --------  --------  ----  --------
  MAIN                  00000000   00040000  0000c0a4  00033f5c  R  X
  INFO                  00200000   00004000  00000000  00004000  R  X
  SRAM_CODE             01000000   00010000  00000000  00010000  RW X
  SRAM_DATA             20000000   00010000  0000cd22  000032de  RW  


SEGMENT ALLOCATION MAP

run origin  load origin   length   init length attrs members
----------  ----------- ---------- ----------- ----- -------
00000000    00000000    0000c0a8   0000c0a8    r-x
  00000000    00000000    00000144   00000144    r-- .intvecs
  00000144    00000144    0000a95a   0000a95a    r-x .text
  0000aaa0    0000aaa0    00001576   00001576    r-- .const
  0000c018    0000c018    00000090   00000090    r-- .cinit
20000000    20000000    0000cb25   00000000    rw-
  20000000    20000000    000000e4   00000000    rw- .vtable
  200000e4    200000e4    0000c981   00000000    rw- .bss
  2000ca68    2000ca68    000000bd   00000000    rw- .data
2000fe00    2000fe00    00000200   00000000    rw-
  2000fe00    2000fe00    00000200   00000000    rw- .stack


SECTION ALLOCATION MAP

 output                                  attributes/
section   page    origin      length       input sections
--------  ----  ----------  ----------   ----------------
.intvecs   0    00000000    00000144     
                  00000000    00000144     msp432_startup_ccs.obj (.intvecs:retain)

.text      0    00000144    0000a95a     
                  00000144    00001878     tasks.obj (.text)
                  000019bc    00000d7c     cs.obj (.text)
                  00002738    00000ca4     queue.obj (.text)
                  000033dc    00000a8c     main.obj (.text)
                  00003e68    000009ac     rtsv7M4_T_le_v4SPD16_eabi.lib : e_pow.obj (.text)
                  00004814    000008e0     adc14.obj (.text)
                  000050f4    000008a4     spi.obj (.text)
                  00005998    000007a8     i2c.obj (.text)
                  00006140    00000678     Crystalfontz128x128_ST7735.obj (.text)
                  000067b8    00000630     string.obj (.text)
                  00006de8    000005b8     i2c_driver.obj (.text)
                  000073a0    00000490     line.obj (.text)
                  00007830    00000480     gpio.obj (.text)
                  00007cb0    0000043c     tmp006.obj (.text)
                  000080ec    000003f0     interrupt.obj (.text)
                  000084dc    00000328     system_msp432p401r.obj (.text)
                  00008804    00000288     port.obj (.text)
                  00008a8c    00000284     temp_sensor.obj (.text)
                  00008d10    00000266     context.obj (.text)
                  00008f76    00000002     rtsv7M4_T_le_v4SPD16_eabi.lib : mpu_init.obj (.text)
                  00008f78    00000244     sysctl.obj (.text)
                  000091bc    0000021c     acelerometer_driver.obj (.text)
                  000093d8    000001fc     rtsv7M4_T_le_v4SPD16_eabi.lib : s_exp2.obj (.text)
                  000095d4    000001cc     heap_2.obj (.text)
                  000097a0    000001b6     rtsv7M4_T_le_v4SPD16_eabi.lib : fd_add_t2.obj (.text)
                  00009956    00000002                                   : startup.obj (.text)
                  00009958    00000178     adc14_multiple_channel_no_repeat.obj (.text)
                  00009ad0    00000170     rtsv7M4_T_le_v4SPD16_eabi.lib : e_sqrt.obj (.text)
                  00009c40    0000016c     opt3001.obj (.text)
                  00009dac    00000136     rtsv7M4_T_le_v4SPD16_eabi.lib : fd_div_t2.obj (.text)
                  00009ee2    00000134     display.obj (.text)
                  0000a016    0000012a     list.obj (.text)
                  0000a140    000000fc     rtsv7M4_T_le_v4SPD16_eabi.lib : fd_mul_t2.obj (.text)
                  0000a23c    000000fc                                   : s_scalbn.obj (.text)
                  0000a338    000000d2     portasm.obj (.text)
                  0000a40a    00000002     --HOLE-- [fill = 0]
                  0000a40c    000000bc     HAL_MSP_EXP432P401R_Crystalfontz128x128_ST7735.obj (.text)
                  0000a4c8    0000009c     rtsv7M4_T_le_v4SPD16_eabi.lib : memcpy_t2.obj (.text)
                  0000a564    00000086                                   : fd_cmp_t2.obj (.text:__aeabi_cdcmple)
                  0000a5ea    00000086                                   : fd_cmp_t2.obj (.text:__aeabi_cdrcmple)
                  0000a670    0000007a                                   : memset_t2.obj (.text)
                  0000a6ea    00000002     --HOLE-- [fill = 0]
                  0000a6ec    00000070                                   : autoinit.obj (.text)
                  0000a75c    0000006e                                   : fd_tos_t2.obj (.text)
                  0000a7ca    00000068                                   : copy_decompress_lzss.obj (.text:decompress:lzss)
                  0000a832    00000002     --HOLE-- [fill = 0]
                  0000a834    00000054                                   : boot.obj (.text)
                  0000a888    00000054                                   : exit.obj (.text)
                  0000a8dc    0000004c                                   : cpy_tbl.obj (.text)
                  0000a928    0000003e     cpu.obj (.text)
                  0000a966    00000038     rtsv7M4_T_le_v4SPD16_eabi.lib : fs_tod_t2.obj (.text)
                  0000a99e    0000002e                                   : i_tofd_t2.obj (.text)
                  0000a9cc    00000020     msp432_startup_ccs.obj (.text)
                  0000a9ec    00000020     rtsv7M4_T_le_v4SPD16_eabi.lib : u_tofd_t2.obj (.text)
                  0000aa0c    0000001e                                   : strcat.obj (.text)
                  0000aa2a    00000002     --HOLE-- [fill = 0]
                  0000aa2c    00000018                                   : args_main.obj (.text)
                  0000aa44    00000014                                   : _lock.obj (.text)
                  0000aa58    00000014                                   : s_copysign.obj (.text)
                  0000aa6c    00000014                                   : strcpy.obj (.text)
                  0000aa80    0000000e                                   : copy_decompress_none.obj (.text:decompress:none)
                  0000aa8e    0000000c                                   : copy_zero_init.obj (.text:decompress:ZI)
                  0000aa9a    00000004                                   : pre_init.obj (.text)

.const     0    0000aaa0    00001576     
                  0000aaa0    00001000     rtsv7M4_T_le_v4SPD16_eabi.lib : s_exp2.obj (.const:tbl)
                  0000baa0    000002f8     fontfixed6x8.obj (.const:.string:g_pucFontFixed6x8Data)
                  0000bd98    000000c8     fontfixed6x8.obj (.const:g_sFontFixed6x8)
                  0000be60    00000080     adc14.obj (.const:_ctlRegs)
                  0000bee0    00000050     interrupt.obj (.const:g_pulRegs)
                  0000bf30    00000030     rtsv7M4_T_le_v4SPD16_eabi.lib : e_pow.obj (.const:$O1$$)
                  0000bf60    0000002c     Crystalfontz128x128_ST7735.obj (.const:g_sCrystalfontz128x128)
                  0000bf8c    00000020     interrupt.obj (.const:g_pulPriority)
                  0000bfac    0000001c     HAL_MSP_EXP432P401R_Crystalfontz128x128_ST7735.obj (.const:$P$T0$1)
                  0000bfc8    0000001c     gpio.obj (.const:GPIO_PORT_TO_INT)
                  0000bfe4    00000008     Crystalfontz128x128_ST7735.obj (.const:$P$T0$1)
                  0000bfec    00000008     interrupt.obj (.const:g_pulDisRegs)
                  0000bff4    00000008     interrupt.obj (.const:g_pulEnRegs)
                  0000bffc    00000008     interrupt.obj (.const:g_pulPendRegs)
                  0000c004    00000008     interrupt.obj (.const:g_pulUnpendRegs)
                  0000c00c    00000008     port.obj (.const)
                  0000c014    00000002     heap_2.obj (.const)

.cinit     0    0000c018    00000090     
                  0000c018    00000057     (.cinit..data.load) [load image, compression = lzss]
                  0000c06f    00000001     --HOLE-- [fill = 0]
                  0000c070    0000000c     (__TI_handler_table)
                  0000c07c    00000004     --HOLE-- [fill = 0]
                  0000c080    00000008     (.cinit..bss.load) [load image, compression = zero_init]
                  0000c088    00000008     (.cinit..vtable.load) [load image, compression = zero_init]
                  0000c090    00000018     (__TI_cinit_table)

.vtable    0    20000000    000000e4     UNINITIALIZED
                  20000000    000000e4     interrupt.obj (.vtable)

.bss       0    200000e4    0000c981     UNINITIALIZED
                  200000e4    0000c800     heap_2.obj (.bss:ucHeap)
                  2000c8e4    00000064     tasks.obj (.bss:pxReadyTasksLists)
                  2000c948    00000050     (.common:buffer)
                  2000c998    0000001c     (.common:g_sContext)
                  2000c9b4    00000014     tasks.obj (.bss:xDelayedTaskList1)
                  2000c9c8    00000014     tasks.obj (.bss:xDelayedTaskList2)
                  2000c9dc    00000014     tasks.obj (.bss:xPendingReadyList)
                  2000c9f0    00000014     tasks.obj (.bss:xSuspendedTaskList)
                  2000ca04    00000008     cs.obj (.bss)
                  2000ca0c    00000008     tasks.obj (.bss)
                  2000ca14    00000008     heap_2.obj (.bss:xEnd)
                  2000ca1c    00000008     heap_2.obj (.bss:xStart)
                  2000ca24    00000008     (.common:registermitges)
                  2000ca2c    00000008     (.common:resultsBuffer)
                  2000ca34    00000004     adc14_multiple_channel_no_repeat.obj (.bss)
                  2000ca38    00000004     main.obj (.bss)
                  2000ca3c    00000004     (.common:adcRefTempCal_1_2v_30)
                  2000ca40    00000004     (.common:adcRefTempCal_1_2v_85)
                  2000ca44    00000004     (.common:g_ui32ByteCount)
                  2000ca48    00000004     (.common:pData)
                  2000ca4c    00000004     (.common:xBinarySemaphore)
                  2000ca50    00000004     (.common:xMutexBuff)
                  2000ca54    00000004     (.common:xQueue)
                  2000ca58    00000002     (.common:Lcd_ScreenHeigth)
                  2000ca5a    00000002     (.common:Lcd_ScreenWidth)
                  2000ca5c    00000002     (.common:Lcd_TouchTrim)
                  2000ca5e    00000001     (.common:Lcd_FlagRead)
                  2000ca5f    00000001     (.common:Lcd_FontSolid)
                  2000ca60    00000001     (.common:Lcd_Orientation)
                  2000ca61    00000001     (.common:Lcd_PenSolid)
                  2000ca62    00000001     (.common:buff_pos)
                  2000ca63    00000001     (.common:ui8DummyRead)
                  2000ca64    00000001     (.common:ui8Status)

.data      0    2000ca68    000000bd     UNINITIALIZED
                  2000ca68    00000030     gpio.obj (.data:GPIO_PORT_TO_BASE)
                  2000ca98    00000030     tasks.obj (.data)
                  2000cac8    00000014     i2c_driver.obj (.data:i2cConfig)
                  2000cadc    0000000c     rtsv7M4_T_le_v4SPD16_eabi.lib : exit.obj (.data:$O1$$)
                  2000cae8    0000000c     main.obj (.data)
                  2000caf4    0000000c     port.obj (.data)
                  2000cb00    00000008     rtsv7M4_T_le_v4SPD16_eabi.lib : _lock.obj (.data:$O1$$)
                  2000cb08    00000008     heap_2.obj (.data)
                  2000cb10    00000008     tmp006.obj (.data)
                  2000cb18    00000004     rtsv7M4_T_le_v4SPD16_eabi.lib : errno.obj (.data)
                  2000cb1c    00000004                                   : stkdepth_vars.obj (.data)
                  2000cb20    00000004     system_msp432p401r.obj (.data)
                  2000cb24    00000001     i2c_driver.obj (.data)

.stack     0    2000fe00    00000200     UNINITIALIZED
                  2000fe00    00000200     --HOLE--

MODULE SUMMARY

       Module                                               code    ro data   rw data
       ------                                               ----    -------   -------
    .\
       main.obj                                             2700    0         145    
       Crystalfontz128x128_ST7735.obj                       1656    52        10     
       i2c_driver.obj                                       1464    0         31     
       system_msp432p401r.obj                               808     0         4      
       adc14_multiple_channel_no_repeat.obj                 376     0         12     
       msp432_startup_ccs.obj                               32      324       0      
       HAL_MSP_EXP432P401R_Crystalfontz128x128_ST7735.obj   188     28        0      
    +--+----------------------------------------------------+-------+---------+---------+
       Total:                                               7224    404       202    
                                                                                     
    .\GrLib\fonts\
       fontfixed6x8.obj                                     0       960       0      
    +--+----------------------------------------------------+-------+---------+---------+
       Total:                                               0       960       0      
                                                                                     
    .\GrLib\grlib\
       string.obj                                           1584    0         0      
       line.obj                                             1168    0         0      
       context.obj                                          614     0         0      
       display.obj                                          308     0         0      
    +--+----------------------------------------------------+-------+---------+---------+
       Total:                                               3674    0         0      
                                                                                     
    .\driverlib\MSP432P4xx\
       cs.obj                                               3452    0         8      
       adc14.obj                                            2272    128       0      
       spi.obj                                              2212    0         0      
       i2c.obj                                              1960    0         0      
       interrupt.obj                                        1008    144       228    
       gpio.obj                                             1152    28        48     
       sysctl.obj                                           580     0         0      
       cpu.obj                                              62      0         0      
    +--+----------------------------------------------------+-------+---------+---------+
       Total:                                               12698   300       284    
                                                                                     
    .\freertos\cortex-m4\
       port.obj                                             648     8         12     
       portasm.obj                                          210     0         0      
    +--+----------------------------------------------------+-------+---------+---------+
       Total:                                               858     8         12     
                                                                                     
    .\freertos\src\
       heap_2.obj                                           460     2         51224  
       tasks.obj                                            6264    0         236    
       queue.obj                                            3236    0         0      
       list.obj                                             298     0         0      
    +--+----------------------------------------------------+-------+---------+---------+
       Total:                                               10258   2         51460  
                                                                                     
    .\sensors\
       tmp006.obj                                           1084    0         8      
       temp_sensor.obj                                      644     0         8      
       acelerometer_driver.obj                              540     0         0      
       opt3001.obj                                          364     0         0      
    +--+----------------------------------------------------+-------+---------+---------+
       Total:                                               2632    0         16     
                                                                                     
    C:\ti\ccsv7\tools\compiler\ti-cgt-arm_16.9.4.LTS\lib\rtsv7M4_T_le_v4SPD16_eabi.lib
       s_exp2.obj                                           508     4096      0      
       e_pow.obj                                            2476    48        0      
       fd_add_t2.obj                                        438     0         0      
       e_sqrt.obj                                           368     0         0      
       fd_div_t2.obj                                        310     0         0      
       fd_cmp_t2.obj                                        268     0         0      
       fd_mul_t2.obj                                        252     0         0      
       s_scalbn.obj                                         252     0         0      
       memcpy_t2.obj                                        156     0         0      
       memset_t2.obj                                        122     0         0      
       autoinit.obj                                         112     0         0      
       fd_tos_t2.obj                                        110     0         0      
       copy_decompress_lzss.obj                             104     0         0      
       exit.obj                                             84      0         12     
       boot.obj                                             84      0         0      
       cpy_tbl.obj                                          76      0         0      
       fs_tod_t2.obj                                        56      0         0      
       i_tofd_t2.obj                                        46      0         0      
       u_tofd_t2.obj                                        32      0         0      
       strcat.obj                                           30      0         0      
       _lock.obj                                            20      0         8      
       args_main.obj                                        24      0         0      
       s_copysign.obj                                       20      0         0      
       strcpy.obj                                           20      0         0      
       copy_decompress_none.obj                             14      0         0      
       copy_zero_init.obj                                   12      0         0      
       errno.obj                                            0       0         4      
       pre_init.obj                                         4       0         0      
       stkdepth_vars.obj                                    0       0         4      
       mpu_init.obj                                         2       0         0      
       startup.obj                                          2       0         0      
    +--+----------------------------------------------------+-------+---------+---------+
       Total:                                               6002    4144      28     
                                                                                     
       Stack:                                               0       0         512    
       Linker Generated:                                    0       139       0      
    +--+----------------------------------------------------+-------+---------+---------+
       Grand Total:                                         43346   5957      52514  


LINKER GENERATED COPY TABLES

__TI_cinit_table @ 0000c090 records: 3, size/record: 8, table size: 24
	.data: load addr=0000c018, load size=00000057 bytes, run addr=2000ca68, run size=000000bd bytes, compression=lzss
	.bss: load addr=0000c080, load size=00000008 bytes, run addr=200000e4, run size=0000c981 bytes, compression=zero_init
	.vtable: load addr=0000c088, load size=00000008 bytes, run addr=20000000, run size=000000e4 bytes, compression=zero_init


LINKER GENERATED HANDLER TABLE

__TI_handler_table @ 0000c070 records: 3, size/record: 4, table size: 12
	index: 0, handler: __TI_zero_init
	index: 1, handler: __TI_decompress_lzss
	index: 2, handler: __TI_decompress_none


GLOBAL SYMBOLS: SORTED ALPHABETICALLY BY Name 

address   name                                       
-------   ----                                       
00009a57  ADC14_IRQHandler                           
00005069  ADC14_clearInterruptFlag                   
00004c09  ADC14_configureConversionMemory            
00004ab1  ADC14_configureMultiSequenceMode           
00004b47  ADC14_configureSingleSampleMode            
00004d41  ADC14_disableComparatorWindow              
00004bdf  ADC14_disableConversion                    
00004fe3  ADC14_disableInterrupt                     
00004985  ADC14_disableModule                        
00004f5f  ADC14_disableReferenceBurst                
000049c5  ADC14_disableSampleTimer                   
00004cb1  ADC14_enableComparatorWindow               
00004b9d  ADC14_enableConversion                     
00004fb7  ADC14_enableInterrupt                      
0000497d  ADC14_enableModule                         
00004f49  ADC14_enableReferenceBurst                 
0000499b  ADC14_enableSampleTimer                    
00005039  ADC14_getEnabledInterruptStatus            
0000500f  ADC14_getInterruptStatus                   
00004e69  ADC14_getMultiSequenceResult               
00004a3b  ADC14_getResolution                        
00004e4f  ADC14_getResult                            
00004ed5  ADC14_getResultArray                       
000049db  ADC14_initModule                           
00004beb  ADC14_isBusy                               
00005099  ADC14_registerInterrupt                    
00004d9f  ADC14_setComparatorWindowValue             
00004f75  ADC14_setPowerMode                         
00004a21  ADC14_setResolution                        
00004e25  ADC14_setResultFormat                      
00004a87  ADC14_setSampleHoldTime                    
00004a45  ADC14_setSampleHoldTrigger                 
00004bbd  ADC14_toggleConversionTrigger              
000050ad  ADC14_unregisterInterrupt                  
00009a31  ADC_read                                   
00009353  Accel_read                                 
0000a889  C$$EXIT                                    
0000a95d  CPU_basepriGet                             
0000a94f  CPU_basepriSet                             
0000a929  CPU_cpsid                                  
0000a93f  CPU_cpsie                                  
0000a935  CPU_primask                                
0000a94b  CPU_wfi                                    
000026bd  CS_clearInterruptFlag                      
00001f65  CS_disableClockRequest                     
0000204b  CS_disableDCOExternalResistor              
00002591  CS_disableFaultCounter                     
0000267b  CS_disableInterrupt                        
00001f3d  CS_enableClockRequest                      
00001fad  CS_enableDCOExternalResistor               
00002565  CS_enableFaultCounter                      
00002659  CS_enableInterrupt                         
000024fd  CS_getACLK                                 
000024bd  CS_getBCLK                                 
00002145  CS_getDCOFrequency                         
000026a3  CS_getEnabledInterruptStatus               
000024d9  CS_getHSMCLK                               
0000269d  CS_getInterruptStatus                      
00002543  CS_getMCLK                                 
00002521  CS_getSMCLK                                
00001c5d  CS_initClockSignal                         
000026df  CS_registerInterrupt                       
000025bd  CS_resetFaultCounter                       
00002069  CS_setDCOCenteredFrequency                 
00001fd5  CS_setDCOExternalResistorCalibration       
000022e5  CS_setDCOFrequency                         
00001c21  CS_setExternalClockSourceFrequency         
00001f87  CS_setReferenceOscillatorFrequency         
00002609  CS_startFaultCounter                       
00001d61  CS_startHFXT                               
00001d85  CS_startHFXTWithTimeout                    
00001e49  CS_startLFXT                               
00001e6d  CS_startLFXTWithTimeout                    
000020a1  CS_tuneDCOFrequency                        
000026f3  CS_unregisterInterrupt                     
00006141  Crystalfontz128x128_Init                   
00006255  Crystalfontz128x128_SetDrawFrame           
00006383  Crystalfontz128x128_SetOrientation         
000072b1  EUSCIB1_IRQHandler                         
00005863  EUSCI_A_SPI_changeClockPhasePolarity       
00005917  EUSCI_A_SPI_clearInterruptFlag             
00005947  EUSCI_A_SPI_disable                        
000058e5  EUSCI_A_SPI_disableInterrupt               
00005931  EUSCI_A_SPI_enable                         
000058cb  EUSCI_A_SPI_enableInterrupt                
000058ff  EUSCI_A_SPI_getInterruptStatus             
0000595d  EUSCI_A_SPI_getReceiveBufferAddressForDMA  
0000596b  EUSCI_A_SPI_getTransmitBufferAddressForDMA 
00005979  EUSCI_A_SPI_isBusy                         
000057e3  EUSCI_A_SPI_masterChangeClock              
000058bb  EUSCI_A_SPI_receiveData                    
000057c3  EUSCI_A_SPI_select4PinFunctionality        
00005819  EUSCI_A_SPI_slaveInit                      
000058a5  EUSCI_A_SPI_transmitData                   
00005695  EUSCI_B_SPI_changeClockPhasePolarity       
00005749  EUSCI_B_SPI_clearInterruptFlag             
00005779  EUSCI_B_SPI_disable                        
00005717  EUSCI_B_SPI_disableInterrupt               
00005763  EUSCI_B_SPI_enable                         
000056fd  EUSCI_B_SPI_enableInterrupt                
00005731  EUSCI_B_SPI_getInterruptStatus             
0000578f  EUSCI_B_SPI_getReceiveBufferAddressForDMA  
0000579d  EUSCI_B_SPI_getTransmitBufferAddressForDMA 
000057ab  EUSCI_B_SPI_isBusy                         
00005619  EUSCI_B_SPI_masterChangeClock              
000056ed  EUSCI_B_SPI_receiveData                    
000055f9  EUSCI_B_SPI_select4PinFunctionality        
0000564b  EUSCI_B_SPI_slaveInit                      
000056d7  EUSCI_B_SPI_transmitData                   
00007b53  GPIO_clearInterruptFlag                    
00007b13  GPIO_disableInterrupt                      
00007af1  GPIO_enableInterrupt                       
00007bab  GPIO_getEnabledInterruptStatus             
00007ac3  GPIO_getInputPinValue                      
00007b35  GPIO_getInterruptStatus                    
00007b75  GPIO_interruptEdgeSelect                   
00007c6b  GPIO_registerInterrupt                     
0000786b  GPIO_setAsInputPin                         
00007a1f  GPIO_setAsInputPinWithPullDownResistor     
00007a71  GPIO_setAsInputPinWithPullUpResistor       
00007831  GPIO_setAsOutputPin                        
00007935  GPIO_setAsPeripheralModuleFunctionInputPin 
000078b1  GPIO_setAsPeripheralModuleFunctionOutputPin
00007c27  GPIO_setDriveStrengthHigh                  
00007c49  GPIO_setDriveStrengthLow                   
000079b9  GPIO_setOutputHighOnPin                    
000079db  GPIO_setOutputLowOnPin                     
000079fd  GPIO_toggleOutputOnPin                     
00007c8b  GPIO_unregisterInterrupt                   
00008efd  Graphics_clearDisplay                      
00009fff  Graphics_clearDisplayOnDisplay             
00009f51  Graphics_drawHorizontalLineOnDisplay       
000076bd  Graphics_drawLine                          
000073a1  Graphics_drawLineH                         
0000743d  Graphics_drawLineV                         
00009f0d  Graphics_drawMultiplePixelsOnDisplay       
00008f0f  Graphics_drawPixel                         
00009ee3  Graphics_drawPixelOnDisplay                
000068f3  Graphics_drawString                        
00006d81  Graphics_drawStringCentered                
00009f85  Graphics_drawVerticalLineOnDisplay         
00009fb9  Graphics_fillRectangleOnDisplay            
00008eef  Graphics_flushBuffer                       
00009fed  Graphics_flushOnDisplay                    
00008ed1  Graphics_getDisplayHeight                  
00008ec1  Graphics_getDisplayWidth                   
00008e6f  Graphics_getFontBaseline                   
00008ea5  Graphics_getFontHeight                     
00008eb3  Graphics_getFontMaxWidth                   
00008ee1  Graphics_getHeightOfDisplay                
00006d71  Graphics_getStringBaseline                 
00006dc9  Graphics_getStringHeight                   
00006dd9  Graphics_getStringMaxWidth                 
000067f9  Graphics_getStringWidth                    
00008f69  Graphics_getWidthOfDisplay                 
00008d11  Graphics_initContext                       
00008e25  Graphics_setBackgroundColor                
00008e3f  Graphics_setBackgroundColorTranslated      
00008d5b  Graphics_setClipRegion                     
00008e55  Graphics_setFont                           
00008e7d  Graphics_setForegroundColor                
00008e93  Graphics_setForegroundColorTranslated      
00009fd7  Graphics_translateColorOnDisplay           
0000a40d  HAL_LCD_PortInit                           
0000a43d  HAL_LCD_SpiInit                            
0000a473  HAL_LCD_writeCommand                       
0000a49b  HAL_LCD_writeData                          
00005ff9  I2C_clearInterruptFlag                     
00005fe3  I2C_disableInterrupt                       
00005a4b  I2C_disableModule                          
00005fad  I2C_disableMultiMasterMode                 
00005fcd  I2C_enableInterrupt                        
00005a35  I2C_enableModule                           
00005f8d  I2C_enableMultiMasterMode                  
00006027  I2C_getEnabledInterruptStatus              
0000600f  I2C_getInterruptStatus                     
00006037  I2C_getMode                                
00005f33  I2C_getReceiveBufferAddressForDMA          
00005f41  I2C_getTransmitBufferAddressForDMA         
00006de9  I2C_init                                   
00005999  I2C_initMaster                             
000059fb  I2C_initSlave                              
00005aef  I2C_isBusBusy                              
00005f61  I2C_masterIsStartSent                      
00005f4f  I2C_masterIsStopSent                       
00005e59  I2C_masterReceiveMultiByteFinish           
00005e97  I2C_masterReceiveMultiByteFinishWithTimeout
00005e41  I2C_masterReceiveMultiByteNext             
00005ef5  I2C_masterReceiveMultiByteStop             
00005f09  I2C_masterReceiveSingle                    
00005a91  I2C_masterReceiveSingleByte                
00005e27  I2C_masterReceiveStart                     
00005d07  I2C_masterSendMultiByteFinish              
00005d55  I2C_masterSendMultiByteFinishWithTimeout   
00005c9d  I2C_masterSendMultiByteNext                
00005cc9  I2C_masterSendMultiByteNextWithTimeout     
00005bf3  I2C_masterSendMultiByteStart               
00005c41  I2C_masterSendMultiByteStartWithTimeout    
00005dc1  I2C_masterSendMultiByteStop                
00005deb  I2C_masterSendMultiByteStopWithTimeout     
00005b01  I2C_masterSendSingleByte                   
00005b67  I2C_masterSendSingleByteWithTimeout        
00005f79  I2C_masterSendStart                        
00006ed7  I2C_read                                   
000071dd  I2C_read16                                 
00006ff3  I2C_readBurst                              
0000604d  I2C_registerInterrupt                      
00005a75  I2C_setMode                                
00005a61  I2C_setSlaveAddress                        
00005adb  I2C_slaveGetData                           
00005ac5  I2C_slavePutData                           
0000610f  I2C_slaveSendNAK                           
000060b3  I2C_unregisterInterrupt                    
00006e05  I2C_write                                  
00007129  I2C_write16                                
000082af  Interrupt_disableInterrupt                 
000080ff  Interrupt_disableMaster                    
000084ad  Interrupt_disableSleepOnIsrExit            
0000823d  Interrupt_enableInterrupt                  
000080ef  Interrupt_enableMaster                     
0000849b  Interrupt_enableSleepOnIsrExit             
00008217  Interrupt_getPriority                      
0000818f  Interrupt_getPriorityGrouping              
0000847b  Interrupt_getPriorityMask                  
00008495  Interrupt_getVectorTableAddress            
00008321  Interrupt_isEnabled                        
000083ad  Interrupt_pendInterrupt                    
0000810f  Interrupt_registerInterrupt                
000081c7  Interrupt_setPriority                      
00008175  Interrupt_setPriorityGrouping              
0000846b  Interrupt_setPriorityMask                  
00008485  Interrupt_setVectorTableAddress            
0000841d  Interrupt_unpendInterrupt                  
00008161  Interrupt_unregisterInterrupt              
2000ca5e  Lcd_FlagRead                               
2000ca5f  Lcd_FontSolid                              
2000ca60  Lcd_Orientation                            
2000ca61  Lcd_PenSolid                               
2000ca58  Lcd_ScreenHeigth                           
2000ca5a  Lcd_ScreenWidth                            
2000ca5c  Lcd_TouchTrim                              
UNDEFED   SHT$$INIT_ARRAY$$Base                      
UNDEFED   SHT$$INIT_ARRAY$$Limit                     
000052b7  SPI_changeClockPhasePolarity               
00005211  SPI_changeMasterClock                      
00005469  SPI_clearInterruptFlag                     
000053eb  SPI_disableInterrupt                       
00005345  SPI_disableModule                          
000053c5  SPI_enableInterrupt                        
00005329  SPI_enableModule                           
00005439  SPI_getEnabledInterruptStatus              
00005411  SPI_getInterruptStatus                     
00005361  SPI_getReceiveBufferAddressForDMA          
0000537d  SPI_getTransmitBufferAddressForDMA         
00005125  SPI_initMaster                             
00005239  SPI_initSlave                              
000053a9  SPI_isBusy                                 
0000530d  SPI_receiveData                            
0000548f  SPI_registerInterrupt                      
000051eb  SPI_selectFourPinFunctionality             
000052e7  SPI_transmitData                           
0000554d  SPI_unregisterInterrupt                    
0000916b  SysCtl_disableGlitchFilter                 
00008ffb  SysCtl_disableNMISource                    
00009103  SysCtl_disablePeripheralAtCPUHalt          
00009045  SysCtl_disableSRAMBank                     
000090c9  SysCtl_disableSRAMBankRetention            
0000915f  SysCtl_enableGlitchFilter                  
0000900f  SysCtl_enableNMISource                     
000090ef  SysCtl_enablePeripheralAtCPUHalt           
00009029  SysCtl_enableSRAMBank                      
000090ad  SysCtl_enableSRAMBankRetention             
00008ff5  SysCtl_getFlashSize                        
00009023  SysCtl_getNMISourceStatus                  
00008fef  SysCtl_getSRAMSize                         
00008f79  SysCtl_getTLVInfo                          
00009177  SysCtl_getTempCalibrationConstant          
000090e5  SysCtl_rebootDevice                        
0000913b  SysCtl_setWDTPasswordViolationResetType    
00009117  SysCtl_setWDTTimeoutResetType              
2000cb20  SystemCoreClock                            
000084dd  SystemCoreClockUpdate                      
00008751  SystemInit                                 
00007cb1  TMP006_init                                
00007cf5  TMP006_readAmbientTemperature              
00007d1d  TMP006_readObjectTemperature               
4000480c  WDTCTL_SYM                                 
20010000  __STACK_END                                
00000200  __STACK_SIZE                               
0000c090  __TI_CINIT_Base                            
0000c0a8  __TI_CINIT_Limit                           
0000c070  __TI_Handler_Table_Base                    
0000c07c  __TI_Handler_Table_Limit                   
0000a6ed  __TI_auto_init                             
2000cadc  __TI_cleanup_ptr                           
0000a7cb  __TI_decompress_lzss                       
0000aa81  __TI_decompress_none                       
2000cae0  __TI_dtors_ptr                             
2000cae4  __TI_enable_exit_profile_output            
ffffffff  __TI_pprof_out_hndl                        
ffffffff  __TI_prof_data_size                        
ffffffff  __TI_prof_data_start                       
00000000  __TI_static_base__                         
0000aa8f  __TI_zero_init                             
0000a565  __aeabi_cdcmpeq                            
0000a565  __aeabi_cdcmple                            
0000a5eb  __aeabi_cdrcmple                           
0000a75d  __aeabi_d2f                                
000097ab  __aeabi_dadd                               
00009dad  __aeabi_ddiv                               
0000a141  __aeabi_dmul                               
000097a1  __aeabi_dsub                               
0000a967  __aeabi_f2d                                
0000a99f  __aeabi_i2d                                
0000a671  __aeabi_memclr                             
0000a671  __aeabi_memclr4                            
0000a671  __aeabi_memclr8                            
0000a4c9  __aeabi_memcpy                             
0000a4c9  __aeabi_memcpy4                            
0000a4c9  __aeabi_memcpy8                            
0000a673  __aeabi_memset                             
0000a673  __aeabi_memset4                            
0000a673  __aeabi_memset8                            
0000a9ed  __aeabi_ui2d                               
ffffffff  __binit__                                  
ffffffff  __c_args__                                 
00008f77  __mpu_init                                 
2000fe00  __stack                                    
0000aa2d  _args_main                                 
0000a835  _c_int00                                   
2000cb00  _lock                                      
0000aa53  _nop                                       
0000aa4b  _register_lock                             
0000aa45  _register_unlock                           
00009957  _system_post_cinit                         
0000aa9b  _system_pre_init                           
2000cb04  _unlock                                    
0000a88d  abort                                      
2000ca3c  adcRefTempCal_1_2v_30                      
2000ca40  adcRefTempCal_1_2v_85                      
ffffffff  binit                                      
2000ca62  buff_pos                                   
2000c948  buffer                                     
2000cb24  burstMode                                  
2000caec  cont_mitjaAccel                            
2000caf0  cont_mitjaLight                            
2000cae8  cont_temp_segons                           
0000a8dd  copy_in                                    
0000aa59  copysign                                   
0000aa59  copysignl                                  
00003d83  drawTitle                                  
00000489  eTaskGetState                              
2000cb18  errno                                      
0000a895  exit                                       
000093d9  exp2                                       
000093d9  exp2l                                      
00008c09  ftoa                                       
00009277  ftoaAccelerometer                          
20000000  g_pfnRAMVectors                            
2000c998  g_sContext                                 
0000bf60  g_sCrystalfontz128x128                     
0000bd98  g_sFontFixed6x8                            
2000ca44  g_ui32ByteCount                            
00009959  init_ADC                                   
0000934b  init_Accel                                 
00008b9f  intToStr                                   
0000920d  intToStrAccel                              
00000000  interruptVectors                           
0000a23d  ldexp                                      
0000a23d  ldexpl                                     
000033dd  main                                       
2000cb1c  main_func_sp                               
0000a4c9  memcpy                                     
0000a679  memset                                     
2000ca48  pData                                      
00000a55  pcTaskGetName                              
00003e69  pow                                        
00003e69  powl                                       
000095d5  pvPortMalloc                               
00001439  pvTaskIncrementMutexHeldCount              
2000ca98  pxCurrentTCB                               
00008805  pxPortInitialiseStack                      
2000ca24  registermitges                             
2000ca2c  resultsBuffer                              
00008b4f  reverse                                    
000091bd  reverseAccel                               
0000a23d  scalbn                                     
0000a23d  scalbnl                                    
00009d3f  sensorOpt3001Convert                       
00009c4d  sensorOpt3001Enable                        
00009c41  sensorOpt3001Init                          
00009c79  sensorOpt3001Read                          
00009cdd  sensorOpt3001Test                          
00009ad1  sqrt                                       
00009ad1  sqrtl                                      
0000aa0d  strcat                                     
0000aa6d  strcpy                                     
00008a8d  temperatureSensorInit                      
00008ae9  temperatureSensorSample                    
0000317d  ucQueueGetQueueType                        
2000ca63  ui8DummyRead                               
2000ca64  ui8Status                                  
0000c00c  ulMaxSyscallInterruptPriority              
0000a349  ulPortGetIPSR                              
00001451  ulTaskNotifyTake                           
0000a0f9  uxListRemove                               
0000315d  uxQueueGetQueueNumber                      
000030b5  uxQueueMessagesWaiting                     
00003113  uxQueueMessagesWaitingFromISR              
000030df  uxQueueSpacesAvailable                     
00000a4b  uxTaskGetNumberOfTasks                     
00000a99  uxTaskGetSystemState                       
00000fed  uxTaskGetTaskNumber                        
00000511  uxTaskPriorityGet                          
00000541  uxTaskPriorityGetFromISR                   
00001417  uxTaskResetEventItemValue                  
0000a017  vListInitialise                            
0000a047  vListInitialiseItem                        
0000a093  vListInsert                                
0000a057  vListInsertEnd                             
0000a3fd  vPortEnableVFP                             
00008925  vPortEndScheduler                          
00008949  vPortEnterCritical                         
0000898b  vPortExitCritical                          
000096db  vPortFree                                  
00009743  vPortInitialiseBlocks                      
0000a3c1  vPortSVCHandler                            
000089dd  vPortSetupTimerInterrupt                   
0000a3e1  vPortStartFirstTask                        
000089f7  vPortValidateInterruptPriority             
00003139  vQueueDelete                               
0000316b  vQueueSetQueueNumber                       
00000437  vTaskDelay                                 
0000035d  vTaskDelayUntil                            
000008f5  vTaskEndScheduler                          
000010a1  vTaskGetInfo                               
00000fe5  vTaskMissedYield                           
000017d7  vTaskNotifyGiveFromISR                     
00000d23  vTaskPlaceOnEventList                      
00000d5d  vTaskPlaceOnUnorderedEventList             
00001275  vTaskPriorityInherit                       
00000599  vTaskPrioritySet                           
000007f7  vTaskResume                                
0000100d  vTaskSetTaskNumber                         
00000f15  vTaskSetTimeOutState                       
00000889  vTaskStartScheduler                        
000006cd  vTaskSuspend                               
00000911  vTaskSuspendAll                            
00000c9d  vTaskSwitchContext                         
2000ca4c  xBinarySemaphore                           
2000ca50  xMutexBuff                                 
0000973d  xPortGetFreeHeapSize                       
0000a361  xPortPendSVHandler                         
00008891  xPortStartScheduler                        
000089b7  xPortSysTickHandler                        
2000ca54  xQueue                                     
00002997  xQueueCreateCountingSemaphore              
000028bf  xQueueCreateMutex                          
000027eb  xQueueGenericCreate                        
00002d77  xQueueGenericReceive                       
00002739  xQueueGenericReset                         
000029f5  xQueueGenericSend                          
00002b81  xQueueGenericSendFromISR                   
00002c89  xQueueGiveFromISR                          
000028eb  xQueueGiveMutexRecursive                   
00003351  xQueueIsQueueEmptyFromISR                  
000033a7  xQueueIsQueueFullFromISR                   
00003009  xQueuePeekFromISR                          
00002f2d  xQueueReceiveFromISR                       
0000293b  xQueueTakeMutexRecursive                   
00000f43  xTaskCheckForTimeOut                       
00000145  xTaskCreate                                
0000157d  xTaskGenericNotify                         
00001699  xTaskGenericNotifyFromISR                  
0000124f  xTaskGetCurrentTaskHandle                  
00000a27  xTaskGetTickCount                          
00000a37  xTaskGetTickCountFromISR                   
00000b6d  xTaskIncrementTick                         
000018c1  xTaskNotifyStateClear                      
000014cd  xTaskNotifyWait                            
0000133d  xTaskPriorityDisinherit                    
00000dc1  xTaskRemoveFromEventList                   
00000e5d  xTaskRemoveFromUnorderedEventList          
00000929  xTaskResumeAll                             


GLOBAL SYMBOLS: SORTED BY Symbol Address 

address   name                                       
-------   ----                                       
00000000  __TI_static_base__                         
00000000  interruptVectors                           
00000145  xTaskCreate                                
00000200  __STACK_SIZE                               
0000035d  vTaskDelayUntil                            
00000437  vTaskDelay                                 
00000489  eTaskGetState                              
00000511  uxTaskPriorityGet                          
00000541  uxTaskPriorityGetFromISR                   
00000599  vTaskPrioritySet                           
000006cd  vTaskSuspend                               
000007f7  vTaskResume                                
00000889  vTaskStartScheduler                        
000008f5  vTaskEndScheduler                          
00000911  vTaskSuspendAll                            
00000929  xTaskResumeAll                             
00000a27  xTaskGetTickCount                          
00000a37  xTaskGetTickCountFromISR                   
00000a4b  uxTaskGetNumberOfTasks                     
00000a55  pcTaskGetName                              
00000a99  uxTaskGetSystemState                       
00000b6d  xTaskIncrementTick                         
00000c9d  vTaskSwitchContext                         
00000d23  vTaskPlaceOnEventList                      
00000d5d  vTaskPlaceOnUnorderedEventList             
00000dc1  xTaskRemoveFromEventList                   
00000e5d  xTaskRemoveFromUnorderedEventList          
00000f15  vTaskSetTimeOutState                       
00000f43  xTaskCheckForTimeOut                       
00000fe5  vTaskMissedYield                           
00000fed  uxTaskGetTaskNumber                        
0000100d  vTaskSetTaskNumber                         
000010a1  vTaskGetInfo                               
0000124f  xTaskGetCurrentTaskHandle                  
00001275  vTaskPriorityInherit                       
0000133d  xTaskPriorityDisinherit                    
00001417  uxTaskResetEventItemValue                  
00001439  pvTaskIncrementMutexHeldCount              
00001451  ulTaskNotifyTake                           
000014cd  xTaskNotifyWait                            
0000157d  xTaskGenericNotify                         
00001699  xTaskGenericNotifyFromISR                  
000017d7  vTaskNotifyGiveFromISR                     
000018c1  xTaskNotifyStateClear                      
00001c21  CS_setExternalClockSourceFrequency         
00001c5d  CS_initClockSignal                         
00001d61  CS_startHFXT                               
00001d85  CS_startHFXTWithTimeout                    
00001e49  CS_startLFXT                               
00001e6d  CS_startLFXTWithTimeout                    
00001f3d  CS_enableClockRequest                      
00001f65  CS_disableClockRequest                     
00001f87  CS_setReferenceOscillatorFrequency         
00001fad  CS_enableDCOExternalResistor               
00001fd5  CS_setDCOExternalResistorCalibration       
0000204b  CS_disableDCOExternalResistor              
00002069  CS_setDCOCenteredFrequency                 
000020a1  CS_tuneDCOFrequency                        
00002145  CS_getDCOFrequency                         
000022e5  CS_setDCOFrequency                         
000024bd  CS_getBCLK                                 
000024d9  CS_getHSMCLK                               
000024fd  CS_getACLK                                 
00002521  CS_getSMCLK                                
00002543  CS_getMCLK                                 
00002565  CS_enableFaultCounter                      
00002591  CS_disableFaultCounter                     
000025bd  CS_resetFaultCounter                       
00002609  CS_startFaultCounter                       
00002659  CS_enableInterrupt                         
0000267b  CS_disableInterrupt                        
0000269d  CS_getInterruptStatus                      
000026a3  CS_getEnabledInterruptStatus               
000026bd  CS_clearInterruptFlag                      
000026df  CS_registerInterrupt                       
000026f3  CS_unregisterInterrupt                     
00002739  xQueueGenericReset                         
000027eb  xQueueGenericCreate                        
000028bf  xQueueCreateMutex                          
000028eb  xQueueGiveMutexRecursive                   
0000293b  xQueueTakeMutexRecursive                   
00002997  xQueueCreateCountingSemaphore              
000029f5  xQueueGenericSend                          
00002b81  xQueueGenericSendFromISR                   
00002c89  xQueueGiveFromISR                          
00002d77  xQueueGenericReceive                       
00002f2d  xQueueReceiveFromISR                       
00003009  xQueuePeekFromISR                          
000030b5  uxQueueMessagesWaiting                     
000030df  uxQueueSpacesAvailable                     
00003113  uxQueueMessagesWaitingFromISR              
00003139  vQueueDelete                               
0000315d  uxQueueGetQueueNumber                      
0000316b  vQueueSetQueueNumber                       
0000317d  ucQueueGetQueueType                        
00003351  xQueueIsQueueEmptyFromISR                  
000033a7  xQueueIsQueueFullFromISR                   
000033dd  main                                       
00003d83  drawTitle                                  
00003e69  pow                                        
00003e69  powl                                       
0000497d  ADC14_enableModule                         
00004985  ADC14_disableModule                        
0000499b  ADC14_enableSampleTimer                    
000049c5  ADC14_disableSampleTimer                   
000049db  ADC14_initModule                           
00004a21  ADC14_setResolution                        
00004a3b  ADC14_getResolution                        
00004a45  ADC14_setSampleHoldTrigger                 
00004a87  ADC14_setSampleHoldTime                    
00004ab1  ADC14_configureMultiSequenceMode           
00004b47  ADC14_configureSingleSampleMode            
00004b9d  ADC14_enableConversion                     
00004bbd  ADC14_toggleConversionTrigger              
00004bdf  ADC14_disableConversion                    
00004beb  ADC14_isBusy                               
00004c09  ADC14_configureConversionMemory            
00004cb1  ADC14_enableComparatorWindow               
00004d41  ADC14_disableComparatorWindow              
00004d9f  ADC14_setComparatorWindowValue             
00004e25  ADC14_setResultFormat                      
00004e4f  ADC14_getResult                            
00004e69  ADC14_getMultiSequenceResult               
00004ed5  ADC14_getResultArray                       
00004f49  ADC14_enableReferenceBurst                 
00004f5f  ADC14_disableReferenceBurst                
00004f75  ADC14_setPowerMode                         
00004fb7  ADC14_enableInterrupt                      
00004fe3  ADC14_disableInterrupt                     
0000500f  ADC14_getInterruptStatus                   
00005039  ADC14_getEnabledInterruptStatus            
00005069  ADC14_clearInterruptFlag                   
00005099  ADC14_registerInterrupt                    
000050ad  ADC14_unregisterInterrupt                  
00005125  SPI_initMaster                             
000051eb  SPI_selectFourPinFunctionality             
00005211  SPI_changeMasterClock                      
00005239  SPI_initSlave                              
000052b7  SPI_changeClockPhasePolarity               
000052e7  SPI_transmitData                           
0000530d  SPI_receiveData                            
00005329  SPI_enableModule                           
00005345  SPI_disableModule                          
00005361  SPI_getReceiveBufferAddressForDMA          
0000537d  SPI_getTransmitBufferAddressForDMA         
000053a9  SPI_isBusy                                 
000053c5  SPI_enableInterrupt                        
000053eb  SPI_disableInterrupt                       
00005411  SPI_getInterruptStatus                     
00005439  SPI_getEnabledInterruptStatus              
00005469  SPI_clearInterruptFlag                     
0000548f  SPI_registerInterrupt                      
0000554d  SPI_unregisterInterrupt                    
000055f9  EUSCI_B_SPI_select4PinFunctionality        
00005619  EUSCI_B_SPI_masterChangeClock              
0000564b  EUSCI_B_SPI_slaveInit                      
00005695  EUSCI_B_SPI_changeClockPhasePolarity       
000056d7  EUSCI_B_SPI_transmitData                   
000056ed  EUSCI_B_SPI_receiveData                    
000056fd  EUSCI_B_SPI_enableInterrupt                
00005717  EUSCI_B_SPI_disableInterrupt               
00005731  EUSCI_B_SPI_getInterruptStatus             
00005749  EUSCI_B_SPI_clearInterruptFlag             
00005763  EUSCI_B_SPI_enable                         
00005779  EUSCI_B_SPI_disable                        
0000578f  EUSCI_B_SPI_getReceiveBufferAddressForDMA  
0000579d  EUSCI_B_SPI_getTransmitBufferAddressForDMA 
000057ab  EUSCI_B_SPI_isBusy                         
000057c3  EUSCI_A_SPI_select4PinFunctionality        
000057e3  EUSCI_A_SPI_masterChangeClock              
00005819  EUSCI_A_SPI_slaveInit                      
00005863  EUSCI_A_SPI_changeClockPhasePolarity       
000058a5  EUSCI_A_SPI_transmitData                   
000058bb  EUSCI_A_SPI_receiveData                    
000058cb  EUSCI_A_SPI_enableInterrupt                
000058e5  EUSCI_A_SPI_disableInterrupt               
000058ff  EUSCI_A_SPI_getInterruptStatus             
00005917  EUSCI_A_SPI_clearInterruptFlag             
00005931  EUSCI_A_SPI_enable                         
00005947  EUSCI_A_SPI_disable                        
0000595d  EUSCI_A_SPI_getReceiveBufferAddressForDMA  
0000596b  EUSCI_A_SPI_getTransmitBufferAddressForDMA 
00005979  EUSCI_A_SPI_isBusy                         
00005999  I2C_initMaster                             
000059fb  I2C_initSlave                              
00005a35  I2C_enableModule                           
00005a4b  I2C_disableModule                          
00005a61  I2C_setSlaveAddress                        
00005a75  I2C_setMode                                
00005a91  I2C_masterReceiveSingleByte                
00005ac5  I2C_slavePutData                           
00005adb  I2C_slaveGetData                           
00005aef  I2C_isBusBusy                              
00005b01  I2C_masterSendSingleByte                   
00005b67  I2C_masterSendSingleByteWithTimeout        
00005bf3  I2C_masterSendMultiByteStart               
00005c41  I2C_masterSendMultiByteStartWithTimeout    
00005c9d  I2C_masterSendMultiByteNext                
00005cc9  I2C_masterSendMultiByteNextWithTimeout     
00005d07  I2C_masterSendMultiByteFinish              
00005d55  I2C_masterSendMultiByteFinishWithTimeout   
00005dc1  I2C_masterSendMultiByteStop                
00005deb  I2C_masterSendMultiByteStopWithTimeout     
00005e27  I2C_masterReceiveStart                     
00005e41  I2C_masterReceiveMultiByteNext             
00005e59  I2C_masterReceiveMultiByteFinish           
00005e97  I2C_masterReceiveMultiByteFinishWithTimeout
00005ef5  I2C_masterReceiveMultiByteStop             
00005f09  I2C_masterReceiveSingle                    
00005f33  I2C_getReceiveBufferAddressForDMA          
00005f41  I2C_getTransmitBufferAddressForDMA         
00005f4f  I2C_masterIsStopSent                       
00005f61  I2C_masterIsStartSent                      
00005f79  I2C_masterSendStart                        
00005f8d  I2C_enableMultiMasterMode                  
00005fad  I2C_disableMultiMasterMode                 
00005fcd  I2C_enableInterrupt                        
00005fe3  I2C_disableInterrupt                       
00005ff9  I2C_clearInterruptFlag                     
0000600f  I2C_getInterruptStatus                     
00006027  I2C_getEnabledInterruptStatus              
00006037  I2C_getMode                                
0000604d  I2C_registerInterrupt                      
000060b3  I2C_unregisterInterrupt                    
0000610f  I2C_slaveSendNAK                           
00006141  Crystalfontz128x128_Init                   
00006255  Crystalfontz128x128_SetDrawFrame           
00006383  Crystalfontz128x128_SetOrientation         
000067f9  Graphics_getStringWidth                    
000068f3  Graphics_drawString                        
00006d71  Graphics_getStringBaseline                 
00006d81  Graphics_drawStringCentered                
00006dc9  Graphics_getStringHeight                   
00006dd9  Graphics_getStringMaxWidth                 
00006de9  I2C_init                                   
00006e05  I2C_write                                  
00006ed7  I2C_read                                   
00006ff3  I2C_readBurst                              
00007129  I2C_write16                                
000071dd  I2C_read16                                 
000072b1  EUSCIB1_IRQHandler                         
000073a1  Graphics_drawLineH                         
0000743d  Graphics_drawLineV                         
000076bd  Graphics_drawLine                          
00007831  GPIO_setAsOutputPin                        
0000786b  GPIO_setAsInputPin                         
000078b1  GPIO_setAsPeripheralModuleFunctionOutputPin
00007935  GPIO_setAsPeripheralModuleFunctionInputPin 
000079b9  GPIO_setOutputHighOnPin                    
000079db  GPIO_setOutputLowOnPin                     
000079fd  GPIO_toggleOutputOnPin                     
00007a1f  GPIO_setAsInputPinWithPullDownResistor     
00007a71  GPIO_setAsInputPinWithPullUpResistor       
00007ac3  GPIO_getInputPinValue                      
00007af1  GPIO_enableInterrupt                       
00007b13  GPIO_disableInterrupt                      
00007b35  GPIO_getInterruptStatus                    
00007b53  GPIO_clearInterruptFlag                    
00007b75  GPIO_interruptEdgeSelect                   
00007bab  GPIO_getEnabledInterruptStatus             
00007c27  GPIO_setDriveStrengthHigh                  
00007c49  GPIO_setDriveStrengthLow                   
00007c6b  GPIO_registerInterrupt                     
00007c8b  GPIO_unregisterInterrupt                   
00007cb1  TMP006_init                                
00007cf5  TMP006_readAmbientTemperature              
00007d1d  TMP006_readObjectTemperature               
000080ef  Interrupt_enableMaster                     
000080ff  Interrupt_disableMaster                    
0000810f  Interrupt_registerInterrupt                
00008161  Interrupt_unregisterInterrupt              
00008175  Interrupt_setPriorityGrouping              
0000818f  Interrupt_getPriorityGrouping              
000081c7  Interrupt_setPriority                      
00008217  Interrupt_getPriority                      
0000823d  Interrupt_enableInterrupt                  
000082af  Interrupt_disableInterrupt                 
00008321  Interrupt_isEnabled                        
000083ad  Interrupt_pendInterrupt                    
0000841d  Interrupt_unpendInterrupt                  
0000846b  Interrupt_setPriorityMask                  
0000847b  Interrupt_getPriorityMask                  
00008485  Interrupt_setVectorTableAddress            
00008495  Interrupt_getVectorTableAddress            
0000849b  Interrupt_enableSleepOnIsrExit             
000084ad  Interrupt_disableSleepOnIsrExit            
000084dd  SystemCoreClockUpdate                      
00008751  SystemInit                                 
00008805  pxPortInitialiseStack                      
00008891  xPortStartScheduler                        
00008925  vPortEndScheduler                          
00008949  vPortEnterCritical                         
0000898b  vPortExitCritical                          
000089b7  xPortSysTickHandler                        
000089dd  vPortSetupTimerInterrupt                   
000089f7  vPortValidateInterruptPriority             
00008a8d  temperatureSensorInit                      
00008ae9  temperatureSensorSample                    
00008b4f  reverse                                    
00008b9f  intToStr                                   
00008c09  ftoa                                       
00008d11  Graphics_initContext                       
00008d5b  Graphics_setClipRegion                     
00008e25  Graphics_setBackgroundColor                
00008e3f  Graphics_setBackgroundColorTranslated      
00008e55  Graphics_setFont                           
00008e6f  Graphics_getFontBaseline                   
00008e7d  Graphics_setForegroundColor                
00008e93  Graphics_setForegroundColorTranslated      
00008ea5  Graphics_getFontHeight                     
00008eb3  Graphics_getFontMaxWidth                   
00008ec1  Graphics_getDisplayWidth                   
00008ed1  Graphics_getDisplayHeight                  
00008ee1  Graphics_getHeightOfDisplay                
00008eef  Graphics_flushBuffer                       
00008efd  Graphics_clearDisplay                      
00008f0f  Graphics_drawPixel                         
00008f69  Graphics_getWidthOfDisplay                 
00008f77  __mpu_init                                 
00008f79  SysCtl_getTLVInfo                          
00008fef  SysCtl_getSRAMSize                         
00008ff5  SysCtl_getFlashSize                        
00008ffb  SysCtl_disableNMISource                    
0000900f  SysCtl_enableNMISource                     
00009023  SysCtl_getNMISourceStatus                  
00009029  SysCtl_enableSRAMBank                      
00009045  SysCtl_disableSRAMBank                     
000090ad  SysCtl_enableSRAMBankRetention             
000090c9  SysCtl_disableSRAMBankRetention            
000090e5  SysCtl_rebootDevice                        
000090ef  SysCtl_enablePeripheralAtCPUHalt           
00009103  SysCtl_disablePeripheralAtCPUHalt          
00009117  SysCtl_setWDTTimeoutResetType              
0000913b  SysCtl_setWDTPasswordViolationResetType    
0000915f  SysCtl_enableGlitchFilter                  
0000916b  SysCtl_disableGlitchFilter                 
00009177  SysCtl_getTempCalibrationConstant          
000091bd  reverseAccel                               
0000920d  intToStrAccel                              
00009277  ftoaAccelerometer                          
0000934b  init_Accel                                 
00009353  Accel_read                                 
000093d9  exp2                                       
000093d9  exp2l                                      
000095d5  pvPortMalloc                               
000096db  vPortFree                                  
0000973d  xPortGetFreeHeapSize                       
00009743  vPortInitialiseBlocks                      
000097a1  __aeabi_dsub                               
000097ab  __aeabi_dadd                               
00009957  _system_post_cinit                         
00009959  init_ADC                                   
00009a31  ADC_read                                   
00009a57  ADC14_IRQHandler                           
00009ad1  sqrt                                       
00009ad1  sqrtl                                      
00009c41  sensorOpt3001Init                          
00009c4d  sensorOpt3001Enable                        
00009c79  sensorOpt3001Read                          
00009cdd  sensorOpt3001Test                          
00009d3f  sensorOpt3001Convert                       
00009dad  __aeabi_ddiv                               
00009ee3  Graphics_drawPixelOnDisplay                
00009f0d  Graphics_drawMultiplePixelsOnDisplay       
00009f51  Graphics_drawHorizontalLineOnDisplay       
00009f85  Graphics_drawVerticalLineOnDisplay         
00009fb9  Graphics_fillRectangleOnDisplay            
00009fd7  Graphics_translateColorOnDisplay           
00009fed  Graphics_flushOnDisplay                    
00009fff  Graphics_clearDisplayOnDisplay             
0000a017  vListInitialise                            
0000a047  vListInitialiseItem                        
0000a057  vListInsertEnd                             
0000a093  vListInsert                                
0000a0f9  uxListRemove                               
0000a141  __aeabi_dmul                               
0000a23d  ldexp                                      
0000a23d  ldexpl                                     
0000a23d  scalbn                                     
0000a23d  scalbnl                                    
0000a349  ulPortGetIPSR                              
0000a361  xPortPendSVHandler                         
0000a3c1  vPortSVCHandler                            
0000a3e1  vPortStartFirstTask                        
0000a3fd  vPortEnableVFP                             
0000a40d  HAL_LCD_PortInit                           
0000a43d  HAL_LCD_SpiInit                            
0000a473  HAL_LCD_writeCommand                       
0000a49b  HAL_LCD_writeData                          
0000a4c9  __aeabi_memcpy                             
0000a4c9  __aeabi_memcpy4                            
0000a4c9  __aeabi_memcpy8                            
0000a4c9  memcpy                                     
0000a565  __aeabi_cdcmpeq                            
0000a565  __aeabi_cdcmple                            
0000a5eb  __aeabi_cdrcmple                           
0000a671  __aeabi_memclr                             
0000a671  __aeabi_memclr4                            
0000a671  __aeabi_memclr8                            
0000a673  __aeabi_memset                             
0000a673  __aeabi_memset4                            
0000a673  __aeabi_memset8                            
0000a679  memset                                     
0000a6ed  __TI_auto_init                             
0000a75d  __aeabi_d2f                                
0000a7cb  __TI_decompress_lzss                       
0000a835  _c_int00                                   
0000a889  C$$EXIT                                    
0000a88d  abort                                      
0000a895  exit                                       
0000a8dd  copy_in                                    
0000a929  CPU_cpsid                                  
0000a935  CPU_primask                                
0000a93f  CPU_cpsie                                  
0000a94b  CPU_wfi                                    
0000a94f  CPU_basepriSet                             
0000a95d  CPU_basepriGet                             
0000a967  __aeabi_f2d                                
0000a99f  __aeabi_i2d                                
0000a9ed  __aeabi_ui2d                               
0000aa0d  strcat                                     
0000aa2d  _args_main                                 
0000aa45  _register_unlock                           
0000aa4b  _register_lock                             
0000aa53  _nop                                       
0000aa59  copysign                                   
0000aa59  copysignl                                  
0000aa6d  strcpy                                     
0000aa81  __TI_decompress_none                       
0000aa8f  __TI_zero_init                             
0000aa9b  _system_pre_init                           
0000bd98  g_sFontFixed6x8                            
0000bf60  g_sCrystalfontz128x128                     
0000c00c  ulMaxSyscallInterruptPriority              
0000c070  __TI_Handler_Table_Base                    
0000c07c  __TI_Handler_Table_Limit                   
0000c090  __TI_CINIT_Base                            
0000c0a8  __TI_CINIT_Limit                           
20000000  g_pfnRAMVectors                            
2000c948  buffer                                     
2000c998  g_sContext                                 
2000ca24  registermitges                             
2000ca2c  resultsBuffer                              
2000ca3c  adcRefTempCal_1_2v_30                      
2000ca40  adcRefTempCal_1_2v_85                      
2000ca44  g_ui32ByteCount                            
2000ca48  pData                                      
2000ca4c  xBinarySemaphore                           
2000ca50  xMutexBuff                                 
2000ca54  xQueue                                     
2000ca58  Lcd_ScreenHeigth                           
2000ca5a  Lcd_ScreenWidth                            
2000ca5c  Lcd_TouchTrim                              
2000ca5e  Lcd_FlagRead                               
2000ca5f  Lcd_FontSolid                              
2000ca60  Lcd_Orientation                            
2000ca61  Lcd_PenSolid                               
2000ca62  buff_pos                                   
2000ca63  ui8DummyRead                               
2000ca64  ui8Status                                  
2000ca98  pxCurrentTCB                               
2000cadc  __TI_cleanup_ptr                           
2000cae0  __TI_dtors_ptr                             
2000cae4  __TI_enable_exit_profile_output            
2000cae8  cont_temp_segons                           
2000caec  cont_mitjaAccel                            
2000caf0  cont_mitjaLight                            
2000cb00  _lock                                      
2000cb04  _unlock                                    
2000cb18  errno                                      
2000cb1c  main_func_sp                               
2000cb20  SystemCoreClock                            
2000cb24  burstMode                                  
2000fe00  __stack                                    
20010000  __STACK_END                                
4000480c  WDTCTL_SYM                                 
ffffffff  __TI_pprof_out_hndl                        
ffffffff  __TI_prof_data_size                        
ffffffff  __TI_prof_data_start                       
ffffffff  __binit__                                  
ffffffff  __c_args__                                 
ffffffff  binit                                      
UNDEFED   SHT$$INIT_ARRAY$$Base                      
UNDEFED   SHT$$INIT_ARRAY$$Limit                     

[484 symbols]
